{
  "contractName": "AssetTracker",
  "abi": [
    {
      "anonymous": false,
      "inputs": [
        {
          "indexed": false,
          "internalType": "string",
          "name": "manufacturer",
          "type": "string"
        },
        {
          "indexed": false,
          "internalType": "string",
          "name": "uuid",
          "type": "string"
        },
        {
          "indexed": false,
          "internalType": "address",
          "name": "location",
          "type": "address"
        }
      ],
      "name": "AssetCreate",
      "type": "event"
    },
    {
      "anonymous": false,
      "inputs": [
        {
          "indexed": false,
          "internalType": "address",
          "name": "from",
          "type": "address"
        },
        {
          "indexed": false,
          "internalType": "address",
          "name": "to",
          "type": "address"
        },
        {
          "indexed": false,
          "internalType": "string",
          "name": "uuid",
          "type": "string"
        }
      ],
      "name": "AssetTransfer",
      "type": "event"
    },
    {
      "constant": false,
      "inputs": [
        {
          "internalType": "string",
          "name": "name",
          "type": "string"
        },
        {
          "internalType": "string",
          "name": "description",
          "type": "string"
        },
        {
          "internalType": "string",
          "name": "uuid",
          "type": "string"
        }
      ],
      "name": "createAsset",
      "outputs": [],
      "payable": false,
      "stateMutability": "nonpayable",
      "type": "function"
    },
    {
      "constant": false,
      "inputs": [
        {
          "internalType": "bool",
          "name": "verify",
          "type": "bool"
        },
        {
          "internalType": "address",
          "name": "to",
          "type": "address"
        },
        {
          "internalType": "string",
          "name": "uuid",
          "type": "string"
        }
      ],
      "name": "VerifyAndTransferAsset",
      "outputs": [],
      "payable": false,
      "stateMutability": "nonpayable",
      "type": "function"
    },
    {
      "constant": false,
      "inputs": [
        {
          "internalType": "string",
          "name": "descriptionP",
          "type": "string"
        },
        {
          "internalType": "address",
          "name": "to",
          "type": "address"
        },
        {
          "internalType": "string",
          "name": "uuid",
          "type": "string"
        }
      ],
      "name": "ProcessStep",
      "outputs": [],
      "payable": false,
      "stateMutability": "nonpayable",
      "type": "function"
    },
    {
      "constant": false,
      "inputs": [
        {
          "internalType": "string",
          "name": "descriptionD",
          "type": "string"
        },
        {
          "internalType": "address",
          "name": "to",
          "type": "address"
        },
        {
          "internalType": "string",
          "name": "uuid",
          "type": "string"
        }
      ],
      "name": "DistributionStep",
      "outputs": [],
      "payable": false,
      "stateMutability": "nonpayable",
      "type": "function"
    },
    {
      "constant": false,
      "inputs": [
        {
          "internalType": "address",
          "name": "to",
          "type": "address"
        },
        {
          "internalType": "string",
          "name": "uuid",
          "type": "string"
        }
      ],
      "name": "transferAsset",
      "outputs": [],
      "payable": false,
      "stateMutability": "nonpayable",
      "type": "function"
    },
    {
      "constant": true,
      "inputs": [
        {
          "internalType": "string",
          "name": "uuid",
          "type": "string"
        }
      ],
      "name": "getAssetDetails",
      "outputs": [
        {
          "internalType": "string",
          "name": "",
          "type": "string"
        },
        {
          "internalType": "string",
          "name": "",
          "type": "string"
        },
        {
          "internalType": "string",
          "name": "",
          "type": "string"
        }
      ],
      "payable": false,
      "stateMutability": "view",
      "type": "function"
    },
    {
      "constant": true,
      "inputs": [
        {
          "internalType": "string",
          "name": "uuid",
          "type": "string"
        }
      ],
      "name": "getAssetLocation",
      "outputs": [
        {
          "internalType": "address",
          "name": "",
          "type": "address"
        }
      ],
      "payable": false,
      "stateMutability": "view",
      "type": "function"
    }
  ],
  "bytecode": "0x608060405234801561001057600080fd5b50611e9c806100206000396000f3fe608060405234801561001057600080fd5b506004361061009a576000357c010000000000000000000000000000000000000000000000000000000090048063697e1cd711610078578063697e1cd7146104f85780639feff605146105df578063a44f09e214610751578063de58d1561461084c5761009a565b80631357bfcd1461009f57806359ab52771461021157806368fbe23e146102ec575b600080fd5b61020f600480360360608110156100b557600080fd5b81019080803590602001906401000000008111156100d257600080fd5b8201836020820111156100e457600080fd5b8035906020019184600183028401116401000000008311171561010657600080fd5b91908080601f016020809104026020016040519081016040528093929190818152602001838380828437600081840152601f19601f820116905080830192505050505050509192919290803573ffffffffffffffffffffffffffffffffffffffff1690602001909291908035906020019064010000000081111561018957600080fd5b82018360208201111561019b57600080fd5b803590602001918460018302840111640100000000831117156101bd57600080fd5b91908080601f016020809104026020016040519081016040528093929190818152602001838380828437600081840152601f19601f820116905080830192505050505050509192919290505050610a35565b005b6102ea6004803603604081101561022757600080fd5b81019080803573ffffffffffffffffffffffffffffffffffffffff1690602001909291908035906020019064010000000081111561026457600080fd5b82018360208201111561027657600080fd5b8035906020019184600183028401116401000000008311171561029857600080fd5b91908080601f016020809104026020016040519081016040528093929190818152602001838380828437600081840152601f19601f820116905080830192505050505050509192919290505050610cba565b005b6103a56004803603602081101561030257600080fd5b810190808035906020019064010000000081111561031f57600080fd5b82018360208201111561033157600080fd5b8035906020019184600183028401116401000000008311171561035357600080fd5b91908080601f016020809104026020016040519081016040528093929190818152602001838380828437600081840152601f19601f820116905080830192505050505050509192919290505050610fcd565b60405180806020018060200180602001848103845287818151815260200191508051906020019080838360005b838110156103ed5780820151818401526020810190506103d2565b50505050905090810190601f16801561041a5780820380516001836020036101000a031916815260200191505b50848103835286818151815260200191508051906020019080838360005b83811015610453578082015181840152602081019050610438565b50505050905090810190601f1680156104805780820380516001836020036101000a031916815260200191505b50848103825285818151815260200191508051906020019080838360005b838110156104b957808201518184015260208101905061049e565b50505050905090810190601f1680156104e65780820380516001836020036101000a031916815260200191505b50965050505050505060405180910390f35b6105dd6004803603606081101561050e57600080fd5b81019080803515159060200190929190803573ffffffffffffffffffffffffffffffffffffffff1690602001909291908035906020019064010000000081111561055757600080fd5b82018360208201111561056957600080fd5b8035906020019184600183028401116401000000008311171561058b57600080fd5b91908080601f016020809104026020016040519081016040528093929190818152602001838380828437600081840152601f19601f8201169050808301925050505050505091929192905050506112f7565b005b61074f600480360360608110156105f557600080fd5b810190808035906020019064010000000081111561061257600080fd5b82018360208201111561062457600080fd5b8035906020019184600183028401116401000000008311171561064657600080fd5b91908080601f016020809104026020016040519081016040528093929190818152602001838380828437600081840152601f19601f820116905080830192505050505050509192919290803573ffffffffffffffffffffffffffffffffffffffff169060200190929190803590602001906401000000008111156106c957600080fd5b8201836020820111156106db57600080fd5b803590602001918460018302840111640100000000831117156106fd57600080fd5b91908080601f016020809104026020016040519081016040528093929190818152602001838380828437600081840152601f19601f8201169050808301925050505050505091929192905050506115f3565b005b61080a6004803603602081101561076757600080fd5b810190808035906020019064010000000081111561078457600080fd5b82018360208201111561079657600080fd5b803590602001918460018302840111640100000000831117156107b857600080fd5b91908080601f016020809104026020016040519081016040528093929190818152602001838380828437600081840152601f19601f820116905080830192505050505050509192919290505050611878565b604051808273ffffffffffffffffffffffffffffffffffffffff1673ffffffffffffffffffffffffffffffffffffffff16815260200191505060405180910390f35b610a336004803603606081101561086257600080fd5b810190808035906020019064010000000081111561087f57600080fd5b82018360208201111561089157600080fd5b803590602001918460018302840111640100000000831117156108b357600080fd5b91908080601f016020809104026020016040519081016040528093929190818152602001838380828437600081840152601f19601f8201169050808301925050505050505091929192908035906020019064010000000081111561091657600080fd5b82018360208201111561092857600080fd5b8035906020019184600183028401116401000000008311171561094a57600080fd5b91908080601f016020809104026020016040519081016040528093929190818152602001838380828437600081840152601f19601f820116905080830192505050505050509192919290803590602001906401000000008111156109ad57600080fd5b8201836020820111156109bf57600080fd5b803590602001918460018302840111640100000000831117156109e157600080fd5b91908080601f016020809104026020016040519081016040528093929190818152602001838380828437600081840152601f19601f82011690508083019250505050505050919291929050505061190d565b005b826001826040518082805190602001908083835b60208310610a6c5780518252602082019150602081019050602083039250610a49565b6001836020036101000a03801982511681845116808217855250505050505090500191505090815260200160405180910390206003019080519060200190610ab5929190611cf2565b5060405180604001604052803373ffffffffffffffffffffffffffffffffffffffff168152602001828152506000826040518082805190602001908083835b60208310610b175780518252602082019150602081019050602083039250610af4565b6001836020036101000a038019825116818451168082178552505050505050905001915050908152602001604051809103902060008201518160000160006101000a81548173ffffffffffffffffffffffffffffffffffffffff021916908373ffffffffffffffffffffffffffffffffffffffff1602179055506020820151816001019080519060200190610bad929190611d72565b509050507f09d981be3af6960f65605b806c5f197ed3533e0e1e9aa373180ec4517dc8039c338383604051808473ffffffffffffffffffffffffffffffffffffffff1673ffffffffffffffffffffffffffffffffffffffff1681526020018373ffffffffffffffffffffffffffffffffffffffff1673ffffffffffffffffffffffffffffffffffffffff16815260200180602001828103825283818151815260200191508051906020019080838360005b83811015610c79578082015181840152602081019050610c5e565b50505050905090810190601f168015610ca65780820380516001836020036101000a031916815260200191505b5094505050505060405180910390a1505050565b3373ffffffffffffffffffffffffffffffffffffffff166000826040518082805190602001908083835b60208310610d075780518252602082019150602081019050602083039250610ce4565b6001836020036101000a038019825116818451168082178552505050505050905001915050908152602001604051809103902060000160009054906101000a900473ffffffffffffffffffffffffffffffffffffffff1673ffffffffffffffffffffffffffffffffffffffff1614610dca576040517f08c379a000000000000000000000000000000000000000000000000000000000815260040180806020018281038252602d815260200180611e3b602d913960400191505060405180910390fd5b60405180604001604052808373ffffffffffffffffffffffffffffffffffffffff168152602001828152506000826040518082805190602001908083835b60208310610e2b5780518252602082019150602081019050602083039250610e08565b6001836020036101000a038019825116818451168082178552505050505050905001915050908152602001604051809103902060008201518160000160006101000a81548173ffffffffffffffffffffffffffffffffffffffff021916908373ffffffffffffffffffffffffffffffffffffffff1602179055506020820151816001019080519060200190610ec1929190611d72565b509050507f09d981be3af6960f65605b806c5f197ed3533e0e1e9aa373180ec4517dc8039c338383604051808473ffffffffffffffffffffffffffffffffffffffff1673ffffffffffffffffffffffffffffffffffffffff1681526020018373ffffffffffffffffffffffffffffffffffffffff1673ffffffffffffffffffffffffffffffffffffffff16815260200180602001828103825283818151815260200191508051906020019080838360005b83811015610f8d578082015181840152602081019050610f72565b50505050905090810190601f168015610fba5780820380516001836020036101000a031916815260200191505b5094505050505060405180910390a15050565b60608060606001846040518082805190602001908083835b602083106110085780518252602082019150602081019050602083039250610fe5565b6001836020036101000a03801982511681845116808217855250505050505090500191505090815260200160405180910390206000016001856040518082805190602001908083835b602083106110745780518252602082019150602081019050602083039250611051565b6001836020036101000a03801982511681845116808217855250505050505090500191505090815260200160405180910390206001016001866040518082805190602001908083835b602083106110e057805182526020820191506020810190506020830392506110bd565b6001836020036101000a0380198251168184511680821785525050505050509050019150509081526020016040518091039020600401828054600181600116156101000203166002900480601f0160208091040260200160405190810160405280929190818152602001828054600181600116156101000203166002900480156111ab5780601f10611180576101008083540402835291602001916111ab565b820191906000526020600020905b81548152906001019060200180831161118e57829003601f168201915b50505050509250818054600181600116156101000203166002900480601f0160208091040260200160405190810160405280929190818152602001828054600181600116156101000203166002900480156112475780601f1061121c57610100808354040283529160200191611247565b820191906000526020600020905b81548152906001019060200180831161122a57829003601f168201915b50505050509150808054600181600116156101000203166002900480601f0160208091040260200160405190810160405280929190818152602001828054600181600116156101000203166002900480156112e35780601f106112b8576101008083540402835291602001916112e3565b820191906000526020600020905b8154815290600101906020018083116112c657829003601f168201915b505050505090509250925092509193909250565b821561136b576040517f08c379a000000000000000000000000000000000000000000000000000000000815260040180806020018281038252600e8152602001807f70726f647569742072656a65746500000000000000000000000000000000000081525060200191505060405180910390fd5b826001826040518082805190602001908083835b602083106113a2578051825260208201915060208101905060208303925061137f565b6001836020036101000a038019825116818451168082178552505050505050905001915050908152602001604051809103902060050160016101000a81548160ff02191690831515021790555060405180604001604052808373ffffffffffffffffffffffffffffffffffffffff168152602001828152506000826040518082805190602001908083835b60208310611450578051825260208201915060208101905060208303925061142d565b6001836020036101000a038019825116818451168082178552505050505050905001915050908152602001604051809103902060008201518160000160006101000a81548173ffffffffffffffffffffffffffffffffffffffff021916908373ffffffffffffffffffffffffffffffffffffffff16021790555060208201518160010190805190602001906114e6929190611d72565b509050507f09d981be3af6960f65605b806c5f197ed3533e0e1e9aa373180ec4517dc8039c338383604051808473ffffffffffffffffffffffffffffffffffffffff1673ffffffffffffffffffffffffffffffffffffffff1681526020018373ffffffffffffffffffffffffffffffffffffffff1673ffffffffffffffffffffffffffffffffffffffff16815260200180602001828103825283818151815260200191508051906020019080838360005b838110156115b2578082015181840152602081019050611597565b50505050905090810190601f1680156115df5780820380516001836020036101000a031916815260200191505b5094505050505060405180910390a1505050565b826001826040518082805190602001908083835b6020831061162a5780518252602082019150602081019050602083039250611607565b6001836020036101000a03801982511681845116808217855250505050505090500191505090815260200160405180910390206002019080519060200190611673929190611cf2565b5060405180604001604052803373ffffffffffffffffffffffffffffffffffffffff168152602001828152506000826040518082805190602001908083835b602083106116d557805182526020820191506020810190506020830392506116b2565b6001836020036101000a038019825116818451168082178552505050505050905001915050908152602001604051809103902060008201518160000160006101000a81548173ffffffffffffffffffffffffffffffffffffffff021916908373ffffffffffffffffffffffffffffffffffffffff160217905550602082015181600101908051906020019061176b929190611d72565b509050507f09d981be3af6960f65605b806c5f197ed3533e0e1e9aa373180ec4517dc8039c338383604051808473ffffffffffffffffffffffffffffffffffffffff1673ffffffffffffffffffffffffffffffffffffffff1681526020018373ffffffffffffffffffffffffffffffffffffffff1673ffffffffffffffffffffffffffffffffffffffff16815260200180602001828103825283818151815260200191508051906020019080838360005b8381101561183757808201518184015260208101905061181c565b50505050905090810190601f1680156118645780820380516001836020036101000a031916815260200191505b5094505050505060405180910390a1505050565b600080826040518082805190602001908083835b602083106118af578051825260208201915060208101905060208303925061188c565b6001836020036101000a038019825116818451168082178552505050505050905001915050908152602001604051809103902060000160009054906101000a900473ffffffffffffffffffffffffffffffffffffffff169050919050565b6001816040518082805190602001908083835b602083106119435780518252602082019150602081019050602083039250611920565b6001836020036101000a038019825116818451168082178552505050505050905001915050908152602001604051809103902060050160009054906101000a900460ff16156119dd576040517f08c379a0000000000000000000000000000000000000000000000000000000008152600401808060200182810382526023815260200180611e186023913960400191505060405180910390fd5b6040518060e001604052808481526020018381526020016040518060400160405280600181526020017f200000000000000000000000000000000000000000000000000000000000000081525081526020016040518060400160405280600181526020017f200000000000000000000000000000000000000000000000000000000000000081525081526020016040518060400160405280600281526020017f6d310000000000000000000000000000000000000000000000000000000000008152508152602001600115158152602001600115158152506001826040518082805190602001908083835b60208310611aeb5780518252602082019150602081019050602083039250611ac8565b6001836020036101000a03801982511681845116808217855250505050505090500191505090815260200160405180910390206000820151816000019080519060200190611b3a929190611d72565b506020820151816001019080519060200190611b57929190611d72565b506040820151816002019080519060200190611b74929190611d72565b506060820151816003019080519060200190611b91929190611d72565b506080820151816004019080519060200190611bae929190611d72565b5060a08201518160050160006101000a81548160ff02191690831515021790555060c08201518160050160016101000a81548160ff02191690831515021790555090505060405180604001604052803373ffffffffffffffffffffffffffffffffffffffff168152602001828152506000826040518082805190602001908083835b60208310611c535780518252602082019150602081019050602083039250611c30565b6001836020036101000a038019825116818451168082178552505050505050905001915050908152602001604051809103902060008201518160000160006101000a81548173ffffffffffffffffffffffffffffffffffffffff021916908373ffffffffffffffffffffffffffffffffffffffff1602179055506020820151816001019080519060200190611ce9929190611d72565b50905050505050565b828054600181600116156101000203166002900490600052602060002090601f016020900481019282601f10611d3357805160ff1916838001178555611d61565b82800160010185558215611d61579182015b82811115611d60578251825591602001919060010190611d45565b5b509050611d6e9190611df2565b5090565b828054600181600116156101000203166002900490600052602060002090601f016020900481019282601f10611db357805160ff1916838001178555611de1565b82800160010185558215611de1579182015b82811115611de0578251825591602001919060010190611dc5565b5b509050611dee9190611df2565b5090565b611e1491905b80821115611e10576000816000905550600101611df8565b5090565b9056fe417373657420576974682054686973205555494420416c726561647920457869737473596f7520617265204e6f7420417574686f72697a656420746f205472616e736665722054686973204173736574a265627a7a7231582079acf64ae6cca8c3b6c1415961996e012fc01a6480cb406df1dc4642ece0243664736f6c63430005100032",
  "source": "pragma solidity ^0.5.16;\r\n\r\ncontract AssetTracker {\r\n    struct Asset {\r\n        string name;\r\n        string description;\r\n        string descriptionProcess;\r\n        string descriptionDistribution;\r\n        string manufacturer;\r\n        bool initialized;\r\n        bool verify;\r\n    }\r\n\r\n    struct tracking {\r\n        address location;\r\n        string uuid;\r\n    }\r\n    mapping(string => tracking) locations;\r\n    mapping(string  => Asset) private assetStore;\r\n\r\n    event AssetCreate(string manufacturer, string uuid, address location);\r\n    event AssetTransfer(address from, address to, string uuid);\r\n\r\n    function createAsset(string memory name, string memory description, string memory uuid) public {\r\n        require(!assetStore[uuid].initialized, \"Asset With This UUID Already Exists\");\r\n\r\n        assetStore[uuid] = Asset(name, description,\" \" ,\" \",\"m1\",true,true);\r\n        locations[uuid] = tracking(msg.sender, uuid);\r\n        //emit AssetCreate(msg.sender, uuid, msg.sender);\r\n    }\r\n    function VerifyAndTransferAsset(bool verify, address to, string memory uuid) public {\r\n        require(!verify, \"produit rejete\");\r\n        assetStore[uuid].verify=verify;\r\n        locations[uuid]= tracking(to, uuid);\r\n        emit AssetTransfer(msg.sender, to, uuid);\r\n    }\r\n    function ProcessStep(string  memory descriptionP,address to, string memory uuid) public {\r\n        assetStore[uuid].descriptionProcess=descriptionP;\r\n        locations[uuid] = tracking(msg.sender, uuid);\r\n        emit AssetTransfer(msg.sender, to, uuid);\r\n    }\r\n    function DistributionStep(string  memory descriptionD,address to, string memory uuid) public {\r\n        assetStore[uuid].descriptionDistribution=descriptionD;\r\n        locations[uuid] = tracking(msg.sender, uuid);\r\n        emit AssetTransfer(msg.sender, to, uuid);\r\n    }\r\n    function transferAsset(address to, string memory uuid) public {\r\n        require(locations[uuid].location==msg.sender, \"You are Not Authorized to Transfer This Asset\");\r\n\r\n        locations[uuid]= tracking(to, uuid);\r\n        emit AssetTransfer(msg.sender, to, uuid);\r\n    }\r\n\r\n\r\n    function getAssetDetails(string memory uuid)public view returns (string memory,string memory,string memory) {\r\n\r\n        return (assetStore[uuid].name, assetStore[uuid].description, assetStore[uuid].manufacturer);\r\n    }\r\n    function getAssetLocation(string memory uuid)public view returns (address) {\r\n\r\n        return (locations[uuid].location);\r\n    }\r\n\r\n\r\n}\r\n",
  "sourcePath": "D:\\ing\\cour\\blockchaine\\test_interface\\contracts\\AssetTracker.sol",
  "compiler": {
    "name": "solc",
    "version": "0.5.16+commit.9c3226ce.Emscripten.clang"
  },
  "schemaVersion": "3.4.3",
  "updatedAt": "2021-12-06T01:29:26.769Z",
  "devdoc": {
    "methods": {}
  },
  "userdoc": {
    "methods": {}
  }
}